{
  "contractName": "GitSwap",
  "abi": [
    {
      "inputs": [
        {
          "internalType": "contract PoiToken",
          "name": "_tokenContract",
          "type": "address"
        }
      ],
      "stateMutability": "nonpayable",
      "type": "constructor"
    },
    {
      "anonymous": false,
      "inputs": [
        {
          "indexed": false,
          "internalType": "address",
          "name": "account",
          "type": "address"
        },
        {
          "indexed": false,
          "internalType": "address",
          "name": "token",
          "type": "address"
        },
        {
          "indexed": false,
          "internalType": "uint256",
          "name": "amount",
          "type": "uint256"
        },
        {
          "indexed": false,
          "internalType": "uint256",
          "name": "rate",
          "type": "uint256"
        }
      ],
      "name": "TokenBought",
      "type": "event"
    },
    {
      "anonymous": false,
      "inputs": [
        {
          "indexed": false,
          "internalType": "address",
          "name": "account",
          "type": "address"
        },
        {
          "indexed": false,
          "internalType": "address",
          "name": "token",
          "type": "address"
        },
        {
          "indexed": false,
          "internalType": "uint256",
          "name": "amount",
          "type": "uint256"
        },
        {
          "indexed": false,
          "internalType": "uint256",
          "name": "rate",
          "type": "uint256"
        }
      ],
      "name": "TokenSold",
      "type": "event"
    },
    {
      "inputs": [],
      "name": "Flag",
      "outputs": [
        {
          "internalType": "bool",
          "name": "",
          "type": "bool"
        }
      ],
      "stateMutability": "view",
      "type": "function",
      "constant": true
    },
    {
      "inputs": [],
      "name": "name",
      "outputs": [
        {
          "internalType": "string",
          "name": "",
          "type": "string"
        }
      ],
      "stateMutability": "view",
      "type": "function",
      "constant": true
    },
    {
      "inputs": [],
      "name": "rate",
      "outputs": [
        {
          "internalType": "uint256",
          "name": "",
          "type": "uint256"
        }
      ],
      "stateMutability": "view",
      "type": "function",
      "constant": true
    },
    {
      "inputs": [],
      "name": "token",
      "outputs": [
        {
          "internalType": "contract PoiToken",
          "name": "",
          "type": "address"
        }
      ],
      "stateMutability": "view",
      "type": "function",
      "constant": true
    },
    {
      "inputs": [],
      "name": "buyTokens",
      "outputs": [],
      "stateMutability": "payable",
      "type": "function",
      "payable": true
    },
    {
      "inputs": [
        {
          "internalType": "uint256",
          "name": "_amount",
          "type": "uint256"
        }
      ],
      "name": "sellTokens",
      "outputs": [],
      "stateMutability": "nonpayable",
      "type": "function"
    }
  ],
  "bytecode": "0x60806040526040518060400160405280600b81526020017f47697453776170204465780000000000000000000000000000000000000000008152506000908051906020019062000051929190620000d2565b5060646002553480156200006457600080fd5b5060405162000e2238038062000e2283398181016040528101906200008a919062000199565b80600160006101000a81548173ffffffffffffffffffffffffffffffffffffffff021916908373ffffffffffffffffffffffffffffffffffffffff1602179055505062000297565b828054620000e09062000213565b90600052602060002090601f01602090048101928262000104576000855562000150565b82601f106200011f57805160ff191683800117855562000150565b8280016001018555821562000150579182015b828111156200014f57825182559160200191906001019062000132565b5b5090506200015f919062000163565b5090565b5b808211156200017e57600081600090555060010162000164565b5090565b60008151905062000193816200027d565b92915050565b600060208284031215620001b257620001b162000278565b5b6000620001c28482850162000182565b91505092915050565b6000620001d882620001f3565b9050919050565b6000620001ec82620001cb565b9050919050565b600073ffffffffffffffffffffffffffffffffffffffff82169050919050565b600060028204905060018216806200022c57607f821691505b6020821081141562000243576200024262000249565b5b50919050565b7f4e487b7100000000000000000000000000000000000000000000000000000000600052602260045260246000fd5b600080fd5b6200028881620001df565b81146200029457600080fd5b50565b610b7b80620002a76000396000f3fe6080604052600436106100555760003560e01c806306fdde031461005a5780632c4e722e146100855780636c11bcd3146100b0578063d0febe4c146100d9578063f54dd191146100e3578063fc0c546a1461010e575b600080fd5b34801561006657600080fd5b5061006f610139565b60405161007c91906108ad565b60405180910390f35b34801561009157600080fd5b5061009a6101c7565b6040516100a791906108cf565b60405180910390f35b3480156100bc57600080fd5b506100d760048036038101906100d291906106e8565b6101cd565b005b6100e1610418565b005b3480156100ef57600080fd5b506100f8610643565b6040516101059190610877565b60405180910390f35b34801561011a57600080fd5b50610123610656565b6040516101309190610892565b60405180910390f35b6000805461014690610a42565b80601f016020809104026020016040519081016040528092919081815260200182805461017290610a42565b80156101bf5780601f10610194576101008083540402835291602001916101bf565b820191906000526020600020905b8154815290600101906020018083116101a257829003601f168201915b505050505081565b60025481565b80600160009054906101000a900473ffffffffffffffffffffffffffffffffffffffff1673ffffffffffffffffffffffffffffffffffffffff166370a08231336040518263ffffffff1660e01b815260040161022991906107b7565b60206040518083038186803b15801561024157600080fd5b505afa158015610255573d6000803e3d6000fd5b505050506040513d601f19601f820116820180604052508101906102799190610715565b101561028457600080fd5b6000600254826102949190610906565b9050803073ffffffffffffffffffffffffffffffffffffffff163110156102ba57600080fd5b600160009054906101000a900473ffffffffffffffffffffffffffffffffffffffff1673ffffffffffffffffffffffffffffffffffffffff166323b872dd3330856040518463ffffffff1660e01b8152600401610319939291906107d2565b602060405180830381600087803b15801561033357600080fd5b505af1158015610347573d6000803e3d6000fd5b505050506040513d601f19601f8201168201806040525081019061036b91906106bb565b503373ffffffffffffffffffffffffffffffffffffffff166108fc829081150290604051600060405180830381858888f193505050501580156103b2573d6000803e3d6000fd5b507fa8a7473f10e62cf9687e243de1c3ac8b3cbc3dd04b96826beb3a65b59538581433600160009054906101000a900473ffffffffffffffffffffffffffffffffffffffff168460025460405161040c9493929190610809565b60405180910390a15050565b6000600254346104289190610937565b905080600160009054906101000a900473ffffffffffffffffffffffffffffffffffffffff1673ffffffffffffffffffffffffffffffffffffffff166370a08231306040518263ffffffff1660e01b815260040161048691906107b7565b60206040518083038186803b15801561049e57600080fd5b505afa1580156104b2573d6000803e3d6000fd5b505050506040513d601f19601f820116820180604052508101906104d69190610715565b101580156104f15750600160149054906101000a900460ff16155b6104fa57600080fd5b60018060146101000a81548160ff021916908315150217905550600160009054906101000a900473ffffffffffffffffffffffffffffffffffffffff1673ffffffffffffffffffffffffffffffffffffffff1663a9059cbb33836040518363ffffffff1660e01b815260040161057192919061084e565b602060405180830381600087803b15801561058b57600080fd5b505af115801561059f573d6000803e3d6000fd5b505050506040513d601f19601f820116820180604052508101906105c391906106bb565b507f9fa236593f411affe147142a606176190ea6b18be0643332f081175cfe608b6b33600160009054906101000a900473ffffffffffffffffffffffffffffffffffffffff168360025460405161061d9493929190610809565b60405180910390a16000600160146101000a81548160ff02191690831515021790555050565b600160149054906101000a900460ff1681565b600160009054906101000a900473ffffffffffffffffffffffffffffffffffffffff1681565b60008151905061068b81610b17565b92915050565b6000813590506106a081610b2e565b92915050565b6000815190506106b581610b2e565b92915050565b6000602082840312156106d1576106d0610b01565b5b60006106df8482850161067c565b91505092915050565b6000602082840312156106fe576106fd610b01565b5b600061070c84828501610691565b91505092915050565b60006020828403121561072b5761072a610b01565b5b6000610739848285016106a6565b91505092915050565b61074b81610991565b82525050565b61075a816109a3565b82525050565b610769816109d9565b82525050565b600061077a826108ea565b61078481856108f5565b9350610794818560208601610a0f565b61079d81610b06565b840191505092915050565b6107b1816109cf565b82525050565b60006020820190506107cc6000830184610742565b92915050565b60006060820190506107e76000830186610742565b6107f46020830185610742565b61080160408301846107a8565b949350505050565b600060808201905061081e6000830187610742565b61082b6020830186610742565b61083860408301856107a8565b61084560608301846107a8565b95945050505050565b60006040820190506108636000830185610742565b61087060208301846107a8565b9392505050565b600060208201905061088c6000830184610751565b92915050565b60006020820190506108a76000830184610760565b92915050565b600060208201905081810360008301526108c7818461076f565b905092915050565b60006020820190506108e460008301846107a8565b92915050565b600081519050919050565b600082825260208201905092915050565b6000610911826109cf565b915061091c836109cf565b92508261092c5761092b610aa3565b5b828204905092915050565b6000610942826109cf565b915061094d836109cf565b9250817fffffffffffffffffffffffffffffffffffffffffffffffffffffffffffffffff048311821515161561098657610985610a74565b5b828202905092915050565b600061099c826109af565b9050919050565b60008115159050919050565b600073ffffffffffffffffffffffffffffffffffffffff82169050919050565b6000819050919050565b60006109e4826109eb565b9050919050565b60006109f6826109fd565b9050919050565b6000610a08826109af565b9050919050565b60005b83811015610a2d578082015181840152602081019050610a12565b83811115610a3c576000848401525b50505050565b60006002820490506001821680610a5a57607f821691505b60208210811415610a6e57610a6d610ad2565b5b50919050565b7f4e487b7100000000000000000000000000000000000000000000000000000000600052601160045260246000fd5b7f4e487b7100000000000000000000000000000000000000000000000000000000600052601260045260246000fd5b7f4e487b7100000000000000000000000000000000000000000000000000000000600052602260045260246000fd5b600080fd5b6000601f19601f8301169050919050565b610b20816109a3565b8114610b2b57600080fd5b50565b610b37816109cf565b8114610b4257600080fd5b5056fea26469706673582212203e428be0d0eb3c04fbe59a68d16c465ab7abd7b159f33ea8f5b3fa3c3fd079e164736f6c63430008070033",
  "immutableReferences": {},
  "source": "pragma solidity ^0.8.7;\nimport \"./PoiToken.sol\";\n\ncontract GitSwap{\n    string public name = \"GitSwap Dex\";\n    PoiToken public token;\n\n    //re-entrancy protection\n    bool public Flag;\n\n    //redemption rate\n    uint public rate = 100;\n\n    event TokenBought(\n        address account,\n        address token,\n        uint amount,\n        uint rate\n    );\n\n    event TokenSold(\n        address account,\n        address token,\n        uint amount,\n        uint rate\n    );\n    \n    constructor(PoiToken _tokenContract){\n        token = _tokenContract;\n    }\n    function buyTokens() public payable{\n        uint tokenAmount = msg.value * rate;\n        require((token.balanceOf(address(this)) >= tokenAmount) && !Flag);\n\n        Flag = true;\n        token.transfer(msg.sender, tokenAmount);\n        emit TokenBought(msg.sender, address(token), tokenAmount, rate);\n        Flag = false;\n    }\n\n    function sellTokens(uint _amount) public {\n        require(token.balanceOf(msg.sender) >= _amount);\n        uint etherAmount = _amount / rate;\n        require(address(this).balance >= etherAmount);\n        // return poi token to swap contract\n        token.transferFrom(msg.sender, address(this), _amount);\n        payable(msg.sender).transfer(etherAmount);\n        \n        emit TokenSold(msg.sender, address(token), _amount, rate);\n    }\n\n}",
  "sourcePath": "/Users/minjaelee/Documents/ERC-20/code/git_swap/src/contracts/GitSwap.sol",
  "compiler": {
    "name": "solc",
    "version": "0.8.7+commit.e28d00a7.Emscripten.clang"
  },
  "schemaVersion": "3.4.3",
  "updatedAt": "2022-02-07T14:10:26.202Z",
  "networkType": "ethereum",
  "devdoc": {
    "kind": "dev",
    "methods": {},
    "version": 1
  },
  "userdoc": {
    "kind": "user",
    "methods": {},
    "version": 1
  }
}